:0A0000000C9433000C946E000C9475
:10000A0000000C9400000C9400000C9400000C9466
:10001A0000000C9400000C9400000C9400000C9456
:10002A0000000C94AC000C9400000C9400000C949A
:10003A0000000C9400000C9400000C9400000C9436
:10004A0000000C9400000C9400001027E8036400E0
:10005A000A0001000010000110000100F894EE27C8
:10006A00ECBBF1E0FBBFEBBFE5BF8DE0A2E0BB2735
:10007A00ED938A95E9F780E098E0A0E6ED93019781
:10008A00E9F7EFE5EDBFE8E0EEBFC0E6D2E00C9499
:10009A00E500AA93E881E064E7B98BE18A95F1F774
:1000AA00369A349BFECF349AE4B1F5B1219608957D
:1000BA00E1E0F0E03F014424552488249924E0E05B
:1000CA00E5BBC098C198DA98D89890988824992462
:1000DA000895EA93FA93EFB7EA93E3E0F0E0E615BE
:1000EA00F70579F540FC02C0A89801C0A89A41FC1E
:1000FA0002C0A99801C0A99A42FC02C0AA9801C0EC
:10010A00AA9A43FC02C0AB9801C0AB9A44FC02C055
:10011A00AC9801C0AC9A45FC02C0AD9801C0AD9A3A
:10012A0046FC02C0AE9801C0AE9A47FC02C0AF9826
:10013A0001C0AF9AC09AC198909AE1E0F0E03F01FD
:10014A0001C0DA9AE991EFBFF991E99118950A92FB
:10015A001A92FA926A937A938A939A93AA93BA937F
:10016A00EA93FA93EFB7EA93E6E1E2BFF401319634
:10017A004F01E1E0F0E0E615F70529F4EAE0F0E0E6
:10018A00E815F9050CF00EC093DFA1E082DFF695C1
:10019A00E7952F01E0E5F0E0E415F5051CF4E2E04F
:1001AA00F0E03F01E991EFBFF991E991B991A99185
:1001BA009991899179916991F99019900990189575
:1001CA0077DFE5E0EABBE0E0EBBBE3E0E7BBE0E0DA
:1001DA00E8BBEFEFE4BBE0E0E5BBE1E0E1BBE0E078
:1001EA00E2BBE5E0E3BFE6E1E2BFE0E0ECBFEFBD82
:1001FA00EEBDEDBDECBDE7BDE6BDEBBDEABDE9BDBB
:10020A00E8BDE2BDE5BDE4BDE3BDE1E0E9BFEBB7B2
:10021A00E064EBBFE3E0E5BFE0E0E4BFE0E4EABFAF
:10022A00E0E0EBB9E8E0EAB9E6E8E0BDE0E0E0BD2D
:10023A00E3E3E9B9E0E8E8B9E0E4E7B9E3EAE6B913
:10024A00E0E0E0BFEDB9E6BF7894F301E230A0E068
:10025A00FA0721F4D89AE3E0F0E03F01F6CFFFCFA6
:00000001FF
