:0E0000000C943A000C9455000C945D000C9486
:10000E0000000C9400000C9400000C9400000C9462
:10001E0000000C9400000C9400000C9400000C9452
:10002E0000000C9400000C9400000C9400000C9442
:10003E0000000C9400000C9400000C9400000C9432
:10004E0000000C9400001027E80364000A00010071
:10005E0000100001100001006461746120697320BA
:10006E002564200A0000F894EE27ECBBF1E0FBBFFC
:10007E00EBBFE5BF8DE0A2E0BB27ED938A95E9F7D4
:10008E0080E098E0A0E6ED930197E9F7EFE5EDBF8C
:10009E00E8E0EEBFC0E6D2E00C947E00EA93E1E029
:1000AE004E2E909AE2E04E2EE99118950A92AA935E
:1000BE00EA93EFB7EA93E2E0E41571F4E0E0B19968
:1000CE00E1E0A1E00E949402AE2FE0E0B099E1E001
:1000DE00EA0F5E2EE3E04E2EE991EFBFE991A99172
:1000EE000990189544245524772466240895FADF40
:1000FE00E0E0EABBEBBBECE0E7BBE0E0E8BBE4BB77
:10010E00E5BBE1E0E1BBE0E0E2BBE3BFE2BFECBF99
:10011E00EFBDEEBDEDBDECBDE7BDE6BDEBBDEABD91
:10012E00E9BDE8BDE2BDE5BDE4BDE3BDE9BFEBB7AA
:10013E00E06CEBBFEFE0E5BFE0E0E4BFE0ECEABF70
:10014E00E0E0EBB9E8E0EAB9E6E8E0BDE0E0E0BD0A
:10015E00E3E3E9B9E0E8E8B9E0E0E0BFE6B9EDB91C
:10016E00E6BF7894E3E0E41589F4752C70FC02C0C8
:10017E00C39801C0C39AE72DE695E17011F4C298B9
:10018E0001C0C29A63B2E4E04E2E12C0E4E0E41560
:10019E0079F4E6E6F0E0FA93EA93E62DFF27662778
:1001AE0077270E94A40284E00E94290226969ADFF5
:1001BE00D9CFFFCFAA935D9BFECFE881ECB92196F4
:1001CE000895BA93AA93AA81F5DFA881B981ED911A
:1001DE00FD913196FE93EE9323960895BA93AA93CA
:1001EE0026970E94A90210E0AC85BD85E0E0F0E004
:1001FE00ED93FC93EA89FB893196EA8BFB8B319761
:10020E00E4912E2FE03009F415C1E12FE03039F4DE
:10021E00253211F411E002C00E9467020AC1E130DA
:10022E00A9F4253219F40E94670202C112E040E0DF
:10023E0000E02D3211F401E0FCC02B3211F44BE240
:10024E00F8C0203211F440E2F4C002C0E23039F4BA
:10025E0050E013E0203311F40068EBC003C0E3302C
:10026E0009F0E7C0203310F02A3308F007C0AAE0E7
:10027E005A9F502DE22FE0535E0FDBC0E22FE33684
:10028E0049F40E946E02E889F989A481AA930E941A
:10029E007402CEC0E33741F40E946E020E947A02CD
:1002AE000E944E021E2F0AC0E03761F40E946E02B9
:1002BE000E947A020E945A021E2F086002600F7777
:1002CE0030E034C0E43611F0E93611F4046002C0B7
:1002DE00E53731F4E4E5F0E0EE83FF8315E00CC082
:1002EE00E83511F4086003C0E83709F0A1C0EEE567
:1002FE00F0E0EE83FF8314E002FF14C00E946E0252
:10030E000E948402AB85AA233AF4EA85FB850E94FB
:10031E009002EA87FB874DE2403011F01F5F01C06B
:10032E000B7F04C00E946E020E94840200FD11C069
:10033E00151778F407FF08C002FF04C00B7F242FA7
:10034E00115001C020E301C020E20E94670251500B
:10035E00EFCF312F01FF17C03030A1F003FF06C0E1
:10036E00EE81FF812591EE83FF8305C0AE81BF81B3
:10037E002D91AE83BF830E946702503009F0515019
:10038E003150EACF4BC020E3EE81FF810E94A002E4
:10039E00E887F987EE81FF813296EE83FF83E88549
:1003AE00F985AA85BB85AE17BF0750F02F5FA885CC
:1003BE00B985EA85FB85EA1BFB0BEA87FB87EFCF46
:1003CE002A3328F003FF02C0295F01C0295D04FD16
:1003DE001AC0213320F4A885B985119709F409C0F4
:1003EE00531710F000FF01C013C020E207FF0BC02F
:1003FE0020E3006102FF07C00B7F4A930E94740244
:10040E00503009F051500E946702503009F051509F
:10041E003150A885B985129708F0B5CF00FF08C0F6
:10042E00503031F05150E0E2EA930E947402F8CF5E
:10043E0010E0E0CEAC85BD850E949C020E94B00209
:10044E0064960895FF92F82E26971A930A93DE016A
:10045E0014960E948C028D01E0E0EC83ED83EE8316
:10046E00EF83DE0118960E948C020E949C02FA9382
:10047E00EA931A930A93E8EEF0E0FA93EA93DE0118
:10048E001896ACDE198108812896FF900895BA93CC
:10049E00AA93A991B991EE27FF276D91662311F0CA
:1004AE003196FBCF0895BA93AA93AA27BB27E99159
:1004BE00F9910590002011F01196FBCFFD010895E2
:1004CE002A93AD85BE85EF85F88909950895E8894B
:1004DE00F9893497E88BF98B0895AD85BE85EF8544
:1004EE00F88909950895A889B98914960E949C02E5
:1004FE00EE83FF83AE81BF810895A889B9891496D2
:10050E000E949C02EA87FB8708950024AF0DB01D60
:10051E000895F195E195F0400895EE230E2EEA2F01
:10052E0019F0EE0F0A94E9F70895ED91FC911197E9
:10053E0008950590F491E02D08957A936A93FA93B5
:10054E00EA9308955A934A933A932A931A930A93E5
:10055E0008955D814C813B812A811981088108951E
:00000001FF
