:080000000C943A000C945E0020
:100008000C947F000C9400000C9400000C940000E9
:100018000C9400000C9400000C9400000C94000058
:100028000C9400000C9400000C9400000C94000048
:100038000C9400000C9400000C9400000C94000038
:100048000C9400000C9400000C9400001027E803A6
:1000580064000A0001000010000110000100646142
:100068007461206973202564200A0000F894EE2743
:10007800ECBBF1E0FBBFEBBFE5BF8DE0A2E0BB2727
:10008800ED938A95E9F780E098E0A0E6ED93019773
:10009800E9F7EFE5EDBFE8E0EEBFC0E6D2E00C948B
:1000A80094009098C298C3987724552444246624D1
:1000B800992408950A921A92FA926A937A938A93E3
:1000C8009A93AA93BA93EA93FA93EFB7EA93E9DF7C
:1000D800E1E07E2E909AE2E07E2EE991EFBFF99161
:1000E800E991B991A9919991899179916991F99039
:1000F800199009901895EA93EFB7EA93E2E0E715AB
:1001080059F4909AE0E0B099E1E05E2EE0E0B19910
:10011800E1E04E2EE3E07E2EE991EFBFE9911895DC
:10012800C0DFE0E0EABBEBBBECE0E7BBE0E0E8BB4C
:10013800E4BBE5BBE1E0E1BBE0E0E2BBE3BFE2BF7B
:10014800ECBFEFBDEEBDEDBDECBDE7BDE6BDEBBD63
:10015800EABDE9BDE8BDE2BDE5BDE4BDE3BDE9BF7B
:10016800EBB7E06CEBBFEFE0E5BFE0E0E4BFE0EC4D
:10017800EABFE0E0EBB9E8E0EAB9E6E8E0BDE0E0D4
:10018800E0BDE3E3E9B9E0E8E8B9E0E0E0BFE6B9FB
:10019800EDB9E6BF7894E3E0E71581F4E42DE030AB
:1001A80011F4C39801C0C39AE52DE03011F4C29848
:1001B80001C0C29A93B2E4E07E2E12C0E4E0E715D3
:1001C80079F4E6E6F0E0FA93EA93E92DFF2766274B
:1001D80077270E94B10284E00E943E02269661DFE2
:1001E800DACFFFCFAA935D9BFECFE881ECB92196C9
:1001F8000895BA93AA93AA81F5DFA881B981ED91F0
:10020800FD913196FE93EE9323960895BA93AA939F
:1002180026970E94B60210E0AC85BD85E0E0F0E0CC
:10022800ED93FC93EA89FB893196EA8BFB8B319736
:10023800E4912E2FE03009F415C1E12FE03039F4B4
:10024800253211F411E002C00E947C020AC1E1309B
:10025800A9F4253219F40E947C0202C112E040E0A0
:1002680000E02D3211F401E0FCC02B3211F44BE216
:10027800F8C0203211F440E2F4C002C0E23039F490
:1002880050E013E0203311F40068EBC003C0E33002
:1002980009F0E7C0203310F02A3308F007C0AAE0BD
:1002A8005A9F502DE22FE0535E0FDBC0E22FE3365A
:1002B80049F40E948302E889F989A481AA930E94DB
:1002C8008902CEC0E33741F40E9483020E948F0264
:1002D8000E9463021E2F0AC0E03761F40E94830265
:1002E8000E948F020E946F021E2F086002600F7723
:1002F80030E034C0E43611F0E93611F4046002C08D
:10030800E53731F4E4E5F0E0EE83FF8315E00CC057
:10031800E83511F4086003C0E83709F0A1C0EEE53C
:10032800F0E0EE83FF8314E002FF14C00E94830212
:100338000E949902AB85AA233AF4EA85FB850E94BC
:10034800A502EA87FB874DE2403011F01F5F01C02C
:100358000B7F04C00E9483020E94990200FD11C015
:10036800151778F407FF08C002FF04C00B7F242F7D
:10037800115001C020E301C020E20E947C025150CC
:10038800EFCF312F01FF17C03030A1F003FF06C0B7
:10039800EE81FF812591EE83FF8305C0AE81BF8189
:1003A8002D91AE83BF830E947C02503009F05150DA
:1003B8003150EACF4BC020E3EE81FF810E94AD02AD
:1003C800E887F987EE81FF813296EE83FF83E8851F
:1003D800F985AA85BB85AE17BF0750F02F5FA885A2
:1003E800B985EA85FB85EA1BFB0BEA87FB87EFCF1C
:1003F8002A3328F003FF02C0295F01C0295D04FDEC
:100408001AC0213320F4A885B985119709F409C0C9
:10041800531710F000FF01C013C020E207FF0BC004
:1004280020E3006102FF07C00B7F4A930E94890204
:10043800503009F051500E947C02503009F0515060
:100448003150A885B985129708F0B5CF00FF08C0CC
:10045800503031F05150E0E2EA930E948902F8CF1F
:1004680010E0E0CEAC85BD850E94A9020E94BD02C5
:1004780064960895FF92F82E26971A930A93DE0140
:1004880014960E94A1028D01E0E0EC83ED83EE83D7
:10049800EF83DE0118960E94A1020E94A902FA9336
:1004A800EA931A930A93EDEFF0E0FA93EA93DE01E8
:1004B8001896ACDE198108812896FF900895BA93A2
:1004C800AA93A991B991EE27FF276D91662311F0A0
:1004D8003196FBCF0895BA93AA93AA27BB27E9912F
:1004E800F9910590002011F01196FBCFFD010895B8
:1004F8002A93AD85BE85EF85F88909950895E88921
:10050800F9893497E88BF98B0895AD85BE85EF8519
:10051800F88909950895A889B98914960E94A902AD
:10052800EE83FF83AE81BF810895A889B9891496A7
:100538000E94A902EA87FB8708950024AF0DB01D29
:100548000895F195E195F0400895ED91FC9111978A
:1005580008950590F491E02D08957A936A93FA939B
:10056800EA9308955A934A933A932A931A930A93CB
:1005780008955D814C813B812A8119810881089504
:00000001FF
