:060000000C942A000C9490
:1000060045000C9400000C9400000C9400000C9425
:1000160000000C9400000C9400000C9400000C945A
:1000260000000C9400000C9400000C9400000C944A
:1000360000000C9400000C9400000C9400000C943A
:1000460000000C9400000C9400000C940000F8943E
:10005600EE27ECBBF1E0FBBFEBBFE5BF8DE0A2E016
:10006600BB27ED938A95E9F780E098E0A0E6ED934B
:100076000197E9F7EFE5EDBFE8E0EEBFC0E6D2E0B5
:100086000C944E00EA93FA93E1E0F0E03F01DA9A2D
:10009600F991E991189566247724E4E0EABBE0E05B
:1000A600EBBBECE0E7BBE0E0E8BBE4BBE5BBE1BBF8
:1000B600E2BBE3BFE2BFECBFEFBDEEBDEDBDECBD05
:1000C600E7BDE6BDEBBDEABDE9BDE8BDE2BDE5BD08
:1000D600E4BDE3BDE9BFEBB7E064EBBFE3E0E5BF3A
:1000E600E0E0E4BFE0E4EABFE0E0EAB9E0E8E8B96E
:1000F600E0E0E0BFE6B9EDB9E6BF7894FFCFFFCF09
:00000001FF
