:060000000C9435000C9485
:100006006B000C9400000C9400000C9400000C94FF
:1000160000000C9400000C9400000C9400000C945A
:1000260000000C9400000C94AA000C9400000C94A0
:1000360000000C9400000C9400000C9400000C943A
:1000460000000C9400000C9400000C940000102793
:10005600E80364000A00010000100001100001001E
:1000660025640000F894EE27ECBBF1E0FBBFEBBF84
:10007600E5BF8DE0A2E0BB27ED938A95E9F780E026
:1000860098E0A0E6ED930197E9F7EFE5EDBFE8E02C
:10009600EEBFC0E6D2E00C94DA00AA93E881E062F3
:1000A600E7B98BE18A95F1F7369A349BFECF349AFD
:1000B600E5B10C942F01E1E0F0E03F014424552422
:1000C600E0E0E5BBC098C198DA98D8989098089572
:1000D6000E94B002E3E0F0E0E615F705B1F540FC5A
:1000E60002C0A89801C0A89A44FC02C0A99801C001
:1000F600A99AE42DE07011F4AA9801C0AA9AE42DF9
:10010600E07011F4AB9801C0AB9AE42DE07011F4E5
:10011600AC9801C0AC9AE42DE07011F4AD9801C022
:10012600AD9AE42DE07011F4AE9801C0AE9AE42DBC
:10013600E07011F4AF9801C0AF9AC09AC19A909A34
:10014600E1E0F0E03F01B7DF01C0DA9A22C00E9489
:10015600B002E8EDE2BFE1E0F0E0E615F705C9F42C
:10016600A1E09BDF4E2E5524E6E6F0E0FA93EA93F3
:10017600F2010E94EB020E94F80284E00E947202E1
:100186002696E0E5F0E0E415F5051CF4E2E0F0E083
:100196003F01E991EFBFF991E991B991A99199913F
:1001A600899179916991F99019900990189583DF51
:1001B600E5E0EABBE0E0EBBBE3E0E7BBE0E0E8BBA1
:1001C600EFEFE4BBE0E0E5BBE1E0E1BBE0E0E2BB92
:1001D600E1E0E3BFE8EDE2BFE0E0ECBFEFBDEEBD7E
:1001E600EDBDECBDE7BDE6BDEBBDEABDE9BDE8BDD5
:1001F600E2BDE5BDE4BDE3BDE1E0E9BFEBB7E06428
:10020600EBBFE3E0E5BFE0E0E4BFE0E4EABFE0E047
:10021600EBB9E8E0EAB9E6E8E0BDE0E0E0BDE3E33B
:10022600E9B9E0E8E8B9E0E2E7B9E3EAE6B9E0E02F
:10023600E0BFEDB9E6BF7894F301E230A0E0FA073B
:1002460021F4D89AE3E0F0E03F01F6CFFFCFAA937E
:100256005D9BFECFE881ECB921960895BA93AA93E7
:10026600AA81F5DFA881B981ED91FD913196FE93C2
:10027600EE9323960895BA93AA9326970E94FD02B9
:1002860010E0AC85BD85E0E0F0E0ED93FC93EA89F3
:10029600FB893196EA8BFB8B3197E4912E2FE03068
:1002A60009F415C1E12FE03039F4253211F411E0DB
:1002B60002C00E94BE020AC1E130A9F4253219F437
:1002C6000E94BE0202C112E040E000E02D3211F4AD
:1002D60001E0FCC02B3211F44BE2F8C0203211F4DD
:1002E60040E2F4C002C0E23039F450E013E02033BB
:1002F60011F40068EBC003C0E33009F0E7C0203317
:1003060010F02A3308F007C0AAE05A9F502DE22FBA
:10031600E0535E0FDBC0E22FE33649F40E94C502CC
:10032600E889F989A481AA930E94CB02CEC0E3375B
:1003360041F40E94C5020E94D1020E9497021E2F1C
:100346000AC0E03761F40E94C5020E94D1020E94F1
:10035600A3021E2F086002600F7730E034C0E43637
:1003660011F0E93611F4046002C0E53731F4E4E532
:10037600F0E0EE83FF8315E00CC0E83511F4086069
:1003860003C0E83709F0A1C0EEE5F0E0EE83FF8395
:1003960014E002FF14C00E94C5020E94DB02AB8576
:1003A600AA233AF4EA85FB850E94E702EA87FB87DF
:1003B6004DE2403011F01F5F01C00B7F04C00E9468
:1003C600C5020E94DB0200FD11C0151778F407FF75
:1003D60008C002FF04C00B7F242F115001C020E388
:1003E60001C020E20E94BE025150EFCF312F01FF23
:1003F60017C03030A1F003FF06C0EE81FF812591C2
:10040600EE83FF8305C0AE81BF812D91AE83BF838E
:100416000E94BE02503009F051503150EACF4BC015
:1004260020E3EE81FF810E94F402E887F987EE81DE
:10043600FF813296EE83FF83E885F985AA85BB8521
:10044600AE17BF0750F02F5FA885B985EA85FB85F3
:10045600EA1BFB0BEA87FB87EFCF2A3328F003FF63
:1004660002C0295F01C0295D04FD1AC0213320F4B2
:10047600A885B985119709F409C0531710F000FF34
:1004860001C013C020E207FF0BC020E3006102FF9A
:1004960007C00B7F4A930E94CB02503009F051509F
:1004A6000E94BE02503009F051503150A885B985DE
:1004B600129708F0B5CF00FF08C0503031F0515008
:1004C600E0E2EA930E94CB02F8CF10E0E0CEAC85E2
:1004D600BD850E94F0020E94040364960895FF926F
:1004E600F82E26971A930A93DE0114960E94E302C9
:1004F6008D01E0E0EC83ED83EE83EF83DE01189659
:100506000E94E3020E94F002FA93EA931A930A9376
:10051600E1E3F1E0FA93EA93DE011896ACDE198185
:1005260008812896FF900895BA93AA93A991B99144
:10053600EE27FF276D91662311F03196FBCF0895C4
:10054600BA93AA93AA27BB27E991F99105900020AF
:1005560011F01196FBCFFD0108950A921A92FA92B4
:100566006A937A938A939A93AA93BA93EA93FA939D
:10057600EFB7EA9308952A93AD85BE85EF85F8898E
:1005860009950895E889F9893497E88BF98B0895D8
:10059600AD85BE85EF85F88909950895A889B9893D
:1005A60014960E94F002EE83FF83AE81BF81089508
:1005B600A889B98914960E94F002EA87FB870895F4
:1005C6000024AF0DB01D0895F195E195F040089512
:1005D6006F2F660F660B762F0895ED91FC9111979C
:1005E60008950590F491E02D08957A936A93FA930D
:1005F600EA9308955A934A933A932A931A930A933D
:1006060008955D814C813B812A8119810881089575
:00000001FF
